:020000040800F2
:100000000000022035150008A1140008A314000800
:10001000A5140008A7140008A91400080000000097
:10002000000000000000000000000000AB14000809
:10003000AD14000800000000AF140008B11400085F
:100040008515000885150008851500088515000828
:100050008515000885150008851500088515000818
:100060008515000885150008851500088515000808
:1000700085150008851500088515000885150008F8
:1000800085150008851500088515000885150008E8
:1000900085150008851500088515000885150008D8
:1000A00085150008851500088515000885150008C8
:1000B00085150008851500088515000885150008B8
:1000C00085150008851500088515000885150008A8
:1000D0008515000885150008851500088515000898
:1000E0008515000885150008851500088515000888
:1000F0008515000885150008851500088515000878
:100100008515000885150008851500088515000867
:100110008515000885150008851500088515000857
:100120008515000885150008851500088515000847
:100130008515000885150008851500088515000837
:100140008515000885150008851500088515000827
:100150008515000885150008851500088515000817
:100160008515000885150008851500088515000807
:100170008515000885150008851500080000000099
:08018000851500088515000833
:1001900010B5054C237833B9044B13B10448AFF3C1
:1001A00000800123237010BD7000002000000000BB
:1001B000241E000808B5034B1BB103490348AFF3E5
:1001C000008008BD0000000074000020241E00080C
:1001D000034613F8012B002AFBD1181A0138704787
:1001E00001F0FF01102A2BDB10F0070F08D010F8E8
:1001F000013B013A8B422DD010F0070F42B3F6D1EC
:10020000F0B441EA012141EA014122F007047FF004
:1002100000070023F0E80256083C85EA010586EA5B
:10022000010685FA47F5A3FA87F586FA47F6A5FA97
:1002300087F68EB9EED1F0BC01F0FF0102F00702A3
:1002400032B110F8013B013A83EA010313B1F8D14E
:100250000020704701387047002D06BF354603382F
:10026000073815F0010F07D1013015F4807F02BF68
:10027000013015F4C03F0130F0BC0138704700BFB9
:1002800053B94AB9002908BF00281CBF4FF0FF31FD
:100290004FF0FF3000F07AB9ADF1080C6DE904CEF3
:1002A00000F006F8DDF804E0DDE9022304B0704751
:1002B0002DE9F0478C460D460446089E002B51D18F
:1002C0008A4217466DD9B2FA82FEBEF1000F0BD0FA
:1002D000CEF1200C01FA0EF520FA0CFC02FA0EF712
:1002E0004CEA050C00FA0EF44FEA174A250CBCFB49
:1002F000FAF81FFA87F90AFB18CC45EA0C4508FB07
:1003000009F3AB420AD9ED1908F1FF3280F02381DD
:10031000AB4240F22081A8F102083D44ED1AA4B29C
:10032000B5FBFAF00AFB105544EA054400FB09F955
:10033000A14509D9E41900F1FF3380F00A81A145F4
:1003400040F2078102383C44A4EB090440EA08402B
:100350000021002E61D024FA0EF400233460736073
:10036000BDE8F0878B4207D9002E54D0002186E8E3
:1003700021000846BDE8F087B3FA83F1002940F078
:100380008E80AB4202D3824200F2FA80841A65EB7F
:1003900003050120AC46002E3FD086E81010BDE8D2
:1003A000F08712B90127B7FBF2F7B7FA87FEBEF163
:1003B000000F34D1EB1B3A0C1FFA87FC0121B3FB71
:1003C000F2F8250C02FB183345EA03450CFB08F351
:1003D000AB4207D9ED1908F1FF3002D2AB4200F26F
:1003E000D1808046ED1AA3B2B5FBF2F002FB1055A6
:1003F00043EA05440CFB00FCA44507D9E41900F1CD
:10040000FF3302D2A44500F2B8801846A4EB0C04D6
:1004100040EA08409DE731463046BDE8F087CEF11E
:10042000200405FA0EF307FA0EF720FA04F83A0C46
:1004300025FA04F448EA0308B4FBF2F14FEA184540
:1004400002FB11441FFA87FC45EA044501FB0CF34B
:10045000AB4200FA0EF409D9ED1901F1FF3080F03A
:100460008A80AB4240F2878002393D44EB1A1FFA82
:1004700088F5B3FBF2F002FB103345EA034500FBBD
:100480000CF3AB4207D9ED1900F1FF386FD2AB4244
:100490006DD902383D44EB1A40EA01418FE7C1F1C2
:1004A000200722FA07F88B4005FA01F448EA030313
:1004B00020FA07FE4FEA134CFD404EEA040EB5FB4E
:1004C000FCF94FEA1E440CFB19551FFA83F844EA65
:1004D000054509FB08F4AC4202FA01F200FA01FA00
:1004E00008D9ED1809F1FF3043D2AC4241D9A9F146
:1004F00002091D442D1B1FFA8EFEB5FBFCF00CFB00
:1005000010554EEA054400FB08F8A04507D9E41849
:1005100000F1FF3529D2A04527D902381C4440EA12
:100520000940A4EB0804A0FB02894C45C6464D4691
:1005300015D312D056B1BAEB0E0364EB050404FADE
:1005400007F7CB401F43CC40376074600021BDE803
:10055000F0871846F8E69046E0E6C245EAD2B8EBE6
:10056000020E69EB03050138E4E72846D7E7404669
:1005700091E78146BEE7014678E702383C4445E70B
:10058000084608E7A8F102083D442BE7704700BF82
:1005900038B50E4A0E4B054618784FF47A73B3FB04
:1005A000F0F31068B0FBF3F000F088F8044658B997
:1005B0000F2D09D8024629464FF0FF3000F04AF8C7
:1005C000044B20461D6038BD012038BD08000020C6
:1005D000000000200400002008B50B4B1A6842F40C
:1005E00000721A601A6842F480621A601A6842F453
:1005F00080721A60032000F01BF80020FFF7C8FF8C
:1006000000F0B6FE002008BD003C0240034A044B47
:1006100011681B780B441360704700BF98000020DE
:1006200000000020014B1868704700BF98000020B0
:10063000074AD36823F4E0631B041B0C43F0BF6339
:10064000000243F4003300F4E0600343D3607047DA
:1006500000ED00E0174B30B5DC68C4F30224C4F1B0
:100660000703251D042B28BF0423062D4FF0010589
:1006700005FA03F303F1FF338CBF033C0024194058
:10068000A14005FA04F4013C2240002842EA01029C
:100690004FEA0212ADBF00F1604000F00F00064BC0
:1006A00000F56140B5BFD2B2D2B21A5480F800232F
:1006B00030BD00BF00ED00E014ED00E00138B0F106
:1006C000807F0AD2064B074A5860F02182F8231037
:1006D0000020072298601A6070470120704700BF11
:1006E00010E000E000ED00E010B5044660B1437991
:1006F00003F0FF0213B9027100F056FE022363718A
:1007000001236371002010BD012010BD2DE9F04FC1
:1007100085B00B68DFF8AC81684ADFF8AC910193D3
:1007200000234FF0010E019C0EFA03FE0EEA0406B0
:10073000B64540F0AE804C6824F01007022F16D169
:100740004FEAD30A00EB8A0A03F0070BDAF82050CD
:100750004FEA8B0B4FF00F0C0CFA0BFC25EA0C0C3C
:100760000D6905FA0BF545EA0C05CAF820504FEA69
:10077000430A0325D0F800B005FA0AF5ED4304F06A
:10078000030C0BEA050B0CFA0AFC013F4CEA0B0CBC
:10079000012FC0F800C011D8876807EA050BCF68A1
:1007A00007FA0AFC4CEA0B078760476827EA0E0E37
:1007B000C4F300179F4047EA0E074760C7683D40F3
:1007C0008F6807FA0AF73D43C560E50061D54FF031
:1007D000000BCDF80CB0D8F84470394D47F4804781
:1007E000C8F84470D8F8447007F480470397039F13
:1007F00023F0030707F1804707F59C3703F0030C4C
:10080000D7F808A04FEA8C0C4FF00F0E0EFA0CFE32
:10081000A8422AEA0E0E43D005F58065A84241D0D1
:1008200005F58065A8423FD005F58065A8423DD01A
:1008300005F58065A8423BD048453BD005F50065ED
:10084000A84239D005F58065A84214BF08250725C0
:1008500005FA0CF545EA0E05BD601568F74314F47A
:10086000803F0CBF3D4035431560556814F4003F90
:100870000CBF3D4035435560956814F4801F0CBF94
:100880003D4035439560D568A40254BF3D40354393
:10089000D5600133102B7FF444AF05B0BDE8F08F75
:1008A0005D46D5E70125D3E70225D1E70325CFE74C
:1008B0000425CDE70525CBE70625C9E7003C014027
:1008C000000002400038024000140240036919424F
:1008D00014BF0120002070470AB1816170470904EC
:1008E000FBE7436931EA030308BF090481617047EC
:1008F0002DE9F341044618B9012002B0BDE8F081AA
:100900000368DD0710D42368980758D423681A07B2
:1009100000F19A8023685B0700F1B880A269002A81
:1009200040F019810020E8E7A64B9A6802F00C021B
:10093000042A07D09A6802F00C02082A0AD15B68E0
:10094000590207D59F4B1B689A03DCD56368002BBF
:10095000D9D1D1E763689B4DB3F5803F11D12B68A6
:1009600043F480332B60FFF75DFE964D06462B68FF
:100970009B03C8D4FFF756FE801B6428F7D90320D9
:10098000BBE7B3F5A02F04D12B6843F480232B6081
:10099000E5E72A6822F480322A602A6822F480225D
:1009A0002A60002BDFD1FFF73DFE06462B689F0330
:1009B000A9D5FFF737FE801B6428F7D9DFE7814B05
:1009C0009A6812F00C0F07D09A6802F00C02082AFD
:1009D00011D15B685E020ED47A4B1A68950702D576
:1009E000E268012A88D11A68216922F0F80242EAF5
:1009F000C1021A608AE7E268734BB2B101221A6041
:100A0000FFF710FE6F4D06462B68980707D52B6839
:100A1000226923F0F80343EAC2032B6076E7FFF76D
:100A200001FE801B0228EFD9A9E71A60FFF7FAFD43
:100A3000644D06462B6899077FF568AFFFF7F2FD16
:100A4000801B0228F6D99AE76269604B7AB10122CD
:100A50001A60FFF7E7FD5B4D06466B6F9F073FF59A
:100A600059AFFFF7DFFD801B0228F6D987E71A6030
:100A7000FFF7D8FD534D06466B6F98077FF54AAFD9
:100A8000FFF7D0FD801B0228F6D978E74D4B1A6C92
:100A900012F0805228D101921A6C42F080521A64EE
:100AA0001B6C03F080530193019B0126484D2B687A
:100AB000D9051BD5A368434D012B27D12B6F43F0DC
:100AC00001032B67FFF7AEFD3E4D074641F2883824
:100AD0002B6F9B0739D5002E3FF420AF394A136C9A
:100AE00023F08053136419E70026DFE72B6843F4F3
:100AF00080732B60FFF796FD07462B68DA05D9D483
:100B0000FFF790FDC01B0228F7D938E7052B04D169
:100B10002B6F43F004032B67D0E72A6F22F001020A
:100B20002A672A6F22F004022A67002BCAD1FFF736
:100B300079FD41F2883807462B6F9807CBD5FFF730
:100B400071FDC01B4045F7D919E7FFF76BFDC01BCE
:100B50004045BDD913E71B4DAB6803F00C03082BD0
:100B60003FF4CAAE1B4E0023022A336034D1FFF794
:100B700059FD07462B6899011ED4226AE369134385
:100B8000626A43EA8213E26A43EA0263A26A0D4C94
:100B90005208013A43EA02436B6001233360FFF7D6
:100BA00041FD054623689A013FF5BCAEFFF73AFDCB
:100BB000401B0228F6D9E2E6FFF734FDC01B0228ED
:100BC000D8D9DCE60038024000004742800E474298
:100BD0000070004060004742FFF724FD04462B6888
:100BE0009B017FF59FAEFFF71DFD001B0228F6D984
:100BF000C5E600BF134908B58B6803F00C03042B4E
:100C000003D0082B03D0104808BD104808BD4A681F
:100C10004B68496813F4800314BF0C480A48C1F3B9
:100C2000881118BF002302F03F02A1FB0001FFF76B
:100C300027FB044B5B68C3F3014301335B00B0FB4C
:100C4000F3F008BD003802400024F40000127A00DE
:100C50002DE9F0410D46044610B90120BDE8F081B0
:100C6000444B1A6802F00F028A4228D321688F078A
:100C70002DD4C80740D43F4B1A6802F00F029542AA
:100C800066D3226851076CD4130707D53A4A216905
:100C9000936823F4604343EAC1039360FFF7AAFF1C
:100CA000354B364A9B68C3F30313D35CD840344BAF
:100CB00018600020FFF76CFC0020BDE8F081CAB28C
:100CC0001A701B6803F00F039942C6D1CEE72A4B76
:100CD00011F0040F1EBF9A6842F4E0529A600E07AA
:100CE00042BF9A6842F460429A609A68A06822F013
:100CF000F00202439A60BCE762681F4B012A1DD1D3
:100D00001B6813F4003FA8D01B4EB36823F0030305
:100D10001343B360FFF786FC41F288380746B36897
:100D2000626803F00C03B3EB820FA4D0FFF77AFCE8
:100D3000C01B4045F3D90320BDE8F081911E012975
:100D40001B6802D813F0007FDDE713F0020FDAE72B
:100D5000EAB21A701B6803F00F039D427FF47DAF67
:100D60008FE70549E0688B6823F4E05303438B6009
:100D70008AE700BF003C024000380240A91E00087C
:100D800008000020044B054A9B68C3F38223D35C10
:100D9000034A1068D840704700380240B91E000866
:100DA00008000020044B054A9B68C3F34233D35C20
:100DB000034A1068D840704700380240B91E000846
:100DC000080000202DE9F0470668C2683369C16950
:100DD00023F4405313433361044683680069F26887
:100DE0000343606922F41642034322F00C020B43D2
:100DF0001343F3607369A26923F440731343B1F59D
:100E0000004F73617A4B7CD19E4203D003F580631F
:100E10009E4244D1FFF7C6FF192505FB00F3606829
:100E20004FF064094000B3FBF0F3B3FBF9F34FEA72
:100E30000318FFF7B7FF636868435B00B0FBF3F785
:100E4000FFF7B0FF636868435B00B0FBF3F3B3FBED
:100E5000F9F309FB1373DB003233B3FBF9F35B00E7
:100E600003F4F877FFF79EFF626868435200B0FB17
:100E7000F2FAFFF797FF636868435B00B0FBF3F398
:100E8000B3FBF9F309FB13A3DB003233B3FBF9F334
:100E900003F0070343443B44B360BDE8F087FFF72A
:100EA00071FF192505FB00F360684FF064094000ED
:100EB000B3FBF0F3B3FBF9F34FEA0318FFF762FF5C
:100EC000636868435B00B0FBF3F7FFF75BFF6368A1
:100ED00068435B00B0FBF3F3B3FBF9F309FB137357
:100EE000DB003233B3FBF9F35B0003F4F877FFF771
:100EF00049FF626868435200B0FBF2FAFFF742FF15
:100F0000B9E79E4202D03B4B9E4240D1FFF74AFFD9
:100F1000676819254FF0640905FB00F3BF00B3FBB8
:100F2000F7F3B3FBF9F31F01FFF73CFF6368684376
:100F30009B00B0FBF3F8FFF735FF636868439B0045
:100F4000B0FBF3F3B3FBF9F309FB13831B0132335B
:100F5000B3FBF9F303F0F008FFF724FF626868437E
:100F60009200B0FBF2FAFFF71DFF636868439B0035
:100F7000B0FBF3F3B3FBF9F309FB13A31B0132330B
:100F8000B3FBF9F303F00F0343EA080383E7FFF72A
:100F9000F9FE676819254FF0640905FB00F3BF00EF
:100FA000B3FBF7F3B3FBF9F31F01FFF7EBFE636845
:100FB00068439B00B0FBF3F8FFF7E4FE6368684307
:100FC0009B00B0FBF3F3B3FBF9F309FB13831B01A5
:100FD0003233B3FBF9F303F0F008FFF7D3FE626896
:100FE00068439200B0FBF2FAFFF7CCFEBDE700BF0A
:100FF0000010014000140140F8B504460E461746A3
:101000001D4621680B6836EA030301D10020F8BDB4
:101010006B1CF7D095B92368DA6822F4D072DA60D5
:101020005A6922F001025A61202384F8393084F889
:101030003A30002384F838300320F8BDFFF7F2FA85
:10104000C01B8542DDD2E6E710B5044640B390F8F8
:10105000393003F0FF021BB980F8382000F0BCF9EA
:101060002268242384F83930D36823F40053D360F2
:101070002046FFF7A7FE23681A6922F490421A61FE
:101080005A6922F02A025A61DA6842F40052DA60A0
:1010900000202023E06384F8393084F83A3010BD12
:1010A000012010BD2DE9F0411F4690F83930202B6A
:1010B00004460D4690464FD100294AD0002A48D018
:1010C00090F83830012B47D0012380F838300023C6
:1010D000C363212380F83930FFF7A4FAA4F82480F1
:1010E0000646A4F82680E38C9BB26BB93B46324699
:1010F00040212046FFF780FFB0B9202384F8393023
:1011000084F83800BDE8F081E38C013B9BB2E384B6
:10111000A368B3F5805F32463B464FF0800120461E
:101120000ED1FFF769FF10B10320BDE8F0812B88D5
:101130002268C3F308035360236943B90235D2E739
:10114000FFF75AFF0028EFD123682A785A6001354B
:10115000C9E70120BDE8F0810220BDE8F081000070
:101160000FB400B597B018AA02A852F8041B019258
:1011700000F054FA02A8FFF72BF84FF0FF3382B2C9
:1011800002A90448FFF78EFF17B05DF804EB04B026
:10119000704700BFE4000020034B1B6883F30888FE
:1011A000024B1B68184700BF00800008048000083D
:1011B00030B595B03022002108A800F00FFA0021C8
:1011C000142203A800F00AFA00241C4B01941A6CA4
:1011D00042F080521A641B6C03F080530193019B10
:1011E000174B02941A6842F480421A601B680F94ED
:1011F00003F480430293029B01230B9310230C936F
:10120000082310933223119304230225129308A874
:101210000723139308950E95FFF76AFB0F2303939B
:101220004FF4A053069321464FF4805303A804952E
:1012300005940793FFF70CFD15B030BD0038024050
:1012400000700040F0B589B0FFF7C6F9FFF7B0FFB6
:101250001422002103A800F0C1F90024394B0094A6
:101260001A6B394842F001021A631A6B02F001024C
:101270000092009A01941A6B42F002021A631A6BF0
:1012800002F002020192019A02941A6B42F00802E3
:101290001A631B6B03F00803224602934FF470415C
:1012A0000125029BFFF718FB03A928480395049426
:1012B0000594FFF72BFA03A94FF4704322480393D8
:1012C000049505940694FFF721FA2148214B036009
:1012D000FFF70AFA2048214B84604FF4E1370C26CF
:1012E00080E88800C460046146618461C461FFF7DE
:1012F000ABFE1B481B4B846080E88800C46004611F
:1013000046618461C461FFF79FFE29460F48FFF7DD
:10131000DDFAA8420AD10C484FF48051FFF7E1FAF8
:101320001148FFF71DFF002009B0F0BD2A464FF419
:1013300000510548FFF7D0FA0C48FFF711FFFFF7FF
:101340002BFFF0E700380240000C02400000024092
:10135000DC00002000300240E40000200044004097
:101360009C000020004800403C1E0008711E000840
:1013700082B00C4B002100915A6C42F480425A64B6
:101380005A6C02F480420092009A01911A6C42F069
:1013900080521A641B6C03F080530193019B02B0CE
:1013A000704700BF003802400268094B9A4282B081
:1013B0000BD100230193074B1A6B42F480521A633E
:1013C0001B6B03F480530193019B02B0704700BF75
:1013D000003002400038024010B514228AB00446A2
:1013E00000210DEB020000F0F9F82368274A934230
:1013F00025D1274B2748002101911A6C42F4003275
:101400001A641A6C02F400320192019A02911A6B6A
:1014100042F001021A631B6B03F001030293029B6B
:101420000C230593022306930123079303230893B8
:101430000723099305A9FFF769F90AB010BD164AF9
:101440009342FAD1124B1548002103911A6C42F4D1
:1014500080221A641A6C02F480220392039A049187
:101460001A6B42F002021A631B6B03F0020304932F
:10147000049B4FF4406305930223069301230793D3
:10148000032308930723099305A9D4E700440040E8
:1014900000380240000002400048004000040240C2
:1014A0007047FEE7FEE7FEE7FEE7704770477047CC
:1014B000FFF7ACB808B50A4B1968024609B90949E3
:1014C00019601868694602448A4206D900F05CF83F
:1014D0000C2303604FF0FF3008BD1A6008BD00BF49
:1014E0008C000020280100200F49D1F8883043F4F7
:1014F0007003C1F888300D4B1A68002042F00102D9
:101500001A6098601A6822F0847222F480321A609D
:10151000074A5A601A6822F480221A60D8604FF095
:1015200000638B60704700BF00ED00E000380240B0
:1015300010300024DFF834D0002103E00C4B5B585E
:10154000435004310B480C4B42189A42F6D30B4AD5
:1015500002E0002342F8043B094B9A42F9D3FFF71B
:10156000C3FF00F017F8FFF76DFE70470000022080
:10157000041F000800000020700000207000002000
:1015800028010020FEE70000014B1868704700BFEB
:101590000C00002070B50D4E0D4CA41BA4100025AE
:1015A000A54209D10B4E0C4C00F03CFCA41BA4102E
:1015B0000025A54205D170BD56F825309847013564
:1015C000EEE756F8253098470135F2E7FC1E000893
:1015D000FC1E0008FC1E0008001F00080244034611
:1015E000934200D1704703F8011BF9E710B59AB098
:1015F0004FF40274009104916FF000410291059143
:101600004FF6FF71ADF80E106946ADF80C4000F0D2
:101610006BF8009B00221A701AB010BD13460A46E0
:10162000014602480068FFF7E1BF00BF0C00002040
:101630002DE9F0478E689E4282460C4691469846B8
:1016400035D88A8912F4906F31D0256809696F1AEC
:101650006569022305EB450595FBF3F508F10103E8
:101660003B449D4238BF1D46530531D5294600F005
:1016700039FB064650B90C23CAF80030A38943F061
:101680004003A3814FF0FF30BDE8F0873A4621695F
:1016900000F0B4FAA38923F4906343F08003A3819C
:1016A000266165613E44ED1B2660A56046464645C1
:1016B00028BF464632464946206800F0AAFAA36889
:1016C0009B1BA36023681E4426600020BDE8F087B2
:1016D0002A4600F065FB06460028E1D12169504604
:1016E00000F0B2FAC7E700002DE9F04F9DB0804648
:1016F00003938B891C060D4616460FD50B696BB9F3
:10170000402100F0EFFA2860286128B90C23C8F8BE
:1017100000304FF0FF30C5E040236B610023099398
:1017200020238DF8293030238DF82A304FF0010B1B
:1017300037463C4614F8013B002B3CD1B7EB060A78
:101740000BD05346324629464046FFF771FF013021
:1017500000F0A380099B534409933B78002B00F0D1
:101760009C8000234FF0FF32049307930592069369
:101770008DF853301A93052221785048FEF730FD3A
:10178000671C049BD8B9D90644BF20228DF853208A
:101790001A0744BF2B228DF8532022782A2A16D00C
:1017A000079A00210A20274601343B78303B092B59
:1017B00051D9C9B111E0252BC0D02746B9E73F4A1E
:1017C000801A0BFA00F0184304903C46D3E7039AC2
:1017D000111D12680391002A01DB079204E05242B6
:1017E00043F00203079204933B782E2B0ED17B78B3
:1017F0002A2B07F1010132D1039B1A1D1B680392AA
:10180000002BB8BF4FF0FF33023705932C4C3978CB
:1018100003222046FEF7E4FC38B14023001B03FA04
:1018200000F0049B034304930137397825488DF871
:10183000281006227E1CFEF7D3FC002835D0224B50
:10184000FBB9039B073323F0070308330393099B7A
:101850004B4409936CE700FB02320121A3E700230C
:10186000059318460A240F4601313A78303A092A7E
:1018700003D9002BCAD00590C8E704FB0020012340
:10188000F1E703AB00932A46104B04A94046AFF39F
:101890000080B0F1FF3F8146D9D1AB895B063FF5AF
:1018A00038AF09981DB0BDE8F08F03AB00932A460E
:1018B000064B04A9404600F081F8EAE7C11E000883
:1018C000C71E0008CB1E00080000000031160008EB
:1018D0002DE9F04791461F468A680B69DDF82080A4
:1018E0009342B8BF1346C9F8003091F8432006462A
:1018F0000C4612B10133C9F800302368990642BF83
:10190000D9F800300233C9F80030256815F0060513
:1019100007D104F1190AE368D9F800209B1A9D4207
:1019200029DB94F843302268003318BF0123920664
:101930002ED404F1430239463046C047013021D04D
:101940002368E568D9F8002003F00603042B08BFDC
:10195000AD1AA36822690CBF25EAE57500259342FC
:10196000C4BF9B1AED184FF000091A344D451BD126
:101970000020BDE8F0870123524639463046C04773
:10198000013003D14FF0FF30BDE8F0870135C2E7E9
:10199000E1185A1C302081F84300224494F8451085
:1019A00082F843100233C4E7012322463946304609
:1019B000C0470130E6D009F10109D7E72DE9F0432E
:1019C00017460A7E85B06E2A984606460C460C9B42
:1019D00001F1430E00F0BC801AD8632A2ED00AD839
:1019E000002A00F0C880582A00F08A8004F14205DD
:1019F00084F842202AE0642A01D0692AF6D12168BD
:101A00001A6811F0800F23D0111D1960136827E0A8
:101A1000732A00F0B48008D86F2A2AD0702AE5D142
:101A20000A6842F020020A6003E0752A21D0782A71
:101A3000DCD1782284F845206E4964E01A6801F10F
:101A40004205111D1960136884F842300123A3E098
:101A500011F0400F02F104011960D7D0B2F9003043
:101A6000002B03DA2D225B4284F8432062490A22CC
:101A700017E02068196810F0800F03D0081D186067
:101A80000B6806E010F0400F01F104001860F7D079
:101A90000B8859496F2A14BF0A220822002084F8B3
:101AA00043006568A560002DC0F29C80206820F08E
:101AB00004002060002B3FD1002D40F0958075463A
:101AC000082A0BD12368DA0708D5236962689A428D
:101AD000DEBF302305F8013C05F1FF35AEEB050311
:101AE0002361CDF800803B4603AA21463046FFF72C
:101AF000EFFE013055D14FF0FF3005B0BDE8F08367
:101B000081F845203C492268186812F0800F00F1E6
:101B100004051D6001D0036802E05506FBD503886B
:101B2000D00744BF42F0200222601BB9226822F095
:101B3000200222601022B1E77546B3FBF2F002FBEF
:101B40001033CB5C05F8013D03460028F5D1B7E71B
:101B500008681A68496910F0800F04D0101D1860D9
:101B60001368196007E010F0400F02F104001860DC
:101B70001368F6D01980002323617546B1E71A680F
:101B8000111D19601568626800212846FEF728FBC0
:101B900008B1401B606063682361002384F8433010
:101BA0009FE723692A4639463046C0470130A2D014
:101BB00023689B0707D5002504F11909E368039AF8
:101BC0009B1A9D4205DBE068039B9842B8BF18460C
:101BD00093E701234A4639463046C04701308AD050
:101BE0000135EBE7002BA7D10B7884F8423004F1E4
:101BF000420565E7E31E0008D21E000810B5431E2B
:101C00000A44914200D110BD11F8014B03F8014F75
:101C1000F7E7884210B501EB020303D8421E994250
:101C20000CD110BD9842F9D28118D21AD34200D1FA
:101C300010BD13F8014D01F8014DF7E711F8014B04
:101C400002F8014FEBE7000038B50546002945D002
:101C500051F8043C0C1F002BB8BFE41800F0D6F874
:101C60001F4A1368104633B9636014602846BDE804
:101C7000384000F0CCB8A3420CD9216862189342D6
:101C800004BF1A685B68636004BF52182260046076
:101C9000ECE713465A680AB1A242FAD919685818F3
:101CA000A0420BD120680144581882421960DDD14E
:101CB000106852685A6001441960D7E702D90C23B2
:101CC0002B60D3E7206821188A4204BF116852684C
:101CD000626004BF091821605C60C7E738BD00BFBF
:101CE0009000002070B5CD1C25F0030508350C2DA3
:101CF00038BF0C25002D064601DBA94203D90C2371
:101D00003360002070BD00F081F8234A146821463A
:101D100091B9224C23681BB9304600F067F8206067
:101D20002946304600F062F8431C26D10C2333606C
:101D3000304600F06CF8E4E70B685B1B1AD40B2B01
:101D40000FD90B60CD50CC18304600F060F804F18C
:101D50000B00231D20F00700C31A1BD05A42E2508B
:101D600070BD8C420DBF63684B686360136018BF21
:101D70000C46E9E70C464968CAE7C41C24F0030492
:101D8000A04205D0211A304600F030F80130CDD005
:101D90002560D9E770BD00BF9000002094000020AE
:101DA000F8B5074614460E4621B91146BDE8F8407D
:101DB000FFF798BF22B9FFF747FF25462846F8BD31
:101DC00000F026F884420FD921463846FFF78AFFF3
:101DD00005460028F2D031462246FFF70FFF314674
:101DE0003846FFF731FFE9E73546E7E738B5064CF7
:101DF0000023054608462360FFF75CFB431C02D125
:101E0000236803B12B6038BD240100207047704760
:101E100051F8040C0028A0F10400BCBF0B58C018F6
:101E200070470000F8B500BFF8BC08BC9E4670477C
:0C1E3000F8B500BFF8BC08BC9E46704727
:101E3C00424C5F44454255475F4D53473A425554D7
:101E4C00544F4E20495320505245535345442E2E47
:101E5C00474F494E4720544F20424F4F54204D4F2F
:101E6C0044450D0A00424C5F44454255475F4D5373
:101E7C00473A425554544F4E204953204E4F54200C
:101E8C00505245535345442E2E474F494E472054EC
:101E9C004F2055534552204150500D0A0000000070
:101EAC0000000000000102030406070809000000FE
:101EBC000001020304232D302B2000686C4C0065BC
:101ECC00666745464700303132333435363738395A
:101EDC00414243444546003031323334353637388D
:081EEC00396162636465660060
:081EF400BCE3FF7F01000000C8
:041EFC00B501000824
:041F00009101000843
:101F040001000000100000000024F4001000002074
:101F140000000000000000000000000000000000BD
:101F240000000000000000000000000000000000AD
:101F3400000000000000000000000000000000009D
:101F4400000000000000000000000000000000008D
:101F5400000000000000000000000000000000007D
:101F6400000000000000000000000000000000006D
:0400000508001535A5
:00000001FF
